{
  "_format": "hh-sol-artifact-1",
  "contractName": "DAO",
  "sourceName": "contracts/DAO.sol",
  "abi": [
    {
      "inputs": [
        {
          "internalType": "uint256",
          "name": "contributionTime",
          "type": "uint256"
        },
        {
          "internalType": "uint256",
          "name": "_voteTime",
          "type": "uint256"
        },
        {
          "internalType": "uint256",
          "name": "_quorum",
          "type": "uint256"
        }
      ],
      "stateMutability": "nonpayable",
      "type": "constructor"
    },
    {
      "stateMutability": "payable",
      "type": "fallback"
    },
    {
      "inputs": [],
      "name": "admin",
      "outputs": [
        {
          "internalType": "address",
          "name": "",
          "type": "address"
        }
      ],
      "stateMutability": "view",
      "type": "function"
    },
    {
      "inputs": [],
      "name": "availableFunds",
      "outputs": [
        {
          "internalType": "uint256",
          "name": "",
          "type": "uint256"
        }
      ],
      "stateMutability": "view",
      "type": "function"
    },
    {
      "inputs": [],
      "name": "contribute",
      "outputs": [],
      "stateMutability": "payable",
      "type": "function"
    },
    {
      "inputs": [],
      "name": "contributionEnd",
      "outputs": [
        {
          "internalType": "uint256",
          "name": "",
          "type": "uint256"
        }
      ],
      "stateMutability": "view",
      "type": "function"
    },
    {
      "inputs": [
        {
          "internalType": "string",
          "name": "name",
          "type": "string"
        },
        {
          "internalType": "uint256",
          "name": "amount",
          "type": "uint256"
        },
        {
          "internalType": "address payable",
          "name": "recipient",
          "type": "address"
        },
        {
          "internalType": "uint256",
          "name": "offset",
          "type": "uint256"
        }
      ],
      "name": "createProposal",
      "outputs": [],
      "stateMutability": "nonpayable",
      "type": "function"
    },
    {
      "inputs": [
        {
          "internalType": "uint256",
          "name": "proposalId",
          "type": "uint256"
        }
      ],
      "name": "executeProposal",
      "outputs": [],
      "stateMutability": "nonpayable",
      "type": "function"
    },
    {
      "inputs": [
        {
          "internalType": "uint256",
          "name": "proposalId",
          "type": "uint256"
        }
      ],
      "name": "getProposal",
      "outputs": [
        {
          "components": [
            {
              "internalType": "uint256",
              "name": "id",
              "type": "uint256"
            },
            {
              "internalType": "string",
              "name": "name",
              "type": "string"
            },
            {
              "internalType": "uint256",
              "name": "amount",
              "type": "uint256"
            },
            {
              "internalType": "address payable",
              "name": "recipient",
              "type": "address"
            },
            {
              "internalType": "uint256",
              "name": "votes",
              "type": "uint256"
            },
            {
              "internalType": "uint256",
              "name": "end",
              "type": "uint256"
            },
            {
              "internalType": "bool",
              "name": "executed",
              "type": "bool"
            }
          ],
          "internalType": "struct DAO.Proposal",
          "name": "",
          "type": "tuple"
        }
      ],
      "stateMutability": "view",
      "type": "function"
    },
    {
      "inputs": [
        {
          "internalType": "address",
          "name": "userAddres",
          "type": "address"
        }
      ],
      "name": "getUserShares",
      "outputs": [
        {
          "internalType": "uint256",
          "name": "",
          "type": "uint256"
        }
      ],
      "stateMutability": "view",
      "type": "function"
    },
    {
      "inputs": [
        {
          "internalType": "address",
          "name": "",
          "type": "address"
        }
      ],
      "name": "investors",
      "outputs": [
        {
          "internalType": "bool",
          "name": "",
          "type": "bool"
        }
      ],
      "stateMutability": "view",
      "type": "function"
    },
    {
      "inputs": [],
      "name": "nextProposalId",
      "outputs": [
        {
          "internalType": "uint256",
          "name": "",
          "type": "uint256"
        }
      ],
      "stateMutability": "view",
      "type": "function"
    },
    {
      "inputs": [
        {
          "internalType": "uint256",
          "name": "",
          "type": "uint256"
        }
      ],
      "name": "proposals",
      "outputs": [
        {
          "internalType": "uint256",
          "name": "id",
          "type": "uint256"
        },
        {
          "internalType": "string",
          "name": "name",
          "type": "string"
        },
        {
          "internalType": "uint256",
          "name": "amount",
          "type": "uint256"
        },
        {
          "internalType": "address payable",
          "name": "recipient",
          "type": "address"
        },
        {
          "internalType": "uint256",
          "name": "votes",
          "type": "uint256"
        },
        {
          "internalType": "uint256",
          "name": "end",
          "type": "uint256"
        },
        {
          "internalType": "bool",
          "name": "executed",
          "type": "bool"
        }
      ],
      "stateMutability": "view",
      "type": "function"
    },
    {
      "inputs": [],
      "name": "quorum",
      "outputs": [
        {
          "internalType": "uint256",
          "name": "",
          "type": "uint256"
        }
      ],
      "stateMutability": "view",
      "type": "function"
    },
    {
      "inputs": [
        {
          "internalType": "uint256",
          "name": "amount",
          "type": "uint256"
        }
      ],
      "name": "redeemShare",
      "outputs": [],
      "stateMutability": "nonpayable",
      "type": "function"
    },
    {
      "inputs": [
        {
          "internalType": "address",
          "name": "",
          "type": "address"
        }
      ],
      "name": "shares",
      "outputs": [
        {
          "internalType": "uint256",
          "name": "",
          "type": "uint256"
        }
      ],
      "stateMutability": "view",
      "type": "function"
    },
    {
      "inputs": [],
      "name": "totalShares",
      "outputs": [
        {
          "internalType": "uint256",
          "name": "",
          "type": "uint256"
        }
      ],
      "stateMutability": "view",
      "type": "function"
    },
    {
      "inputs": [
        {
          "internalType": "uint256",
          "name": "amount",
          "type": "uint256"
        },
        {
          "internalType": "address",
          "name": "to",
          "type": "address"
        }
      ],
      "name": "transferShare",
      "outputs": [],
      "stateMutability": "nonpayable",
      "type": "function"
    },
    {
      "inputs": [
        {
          "internalType": "uint256",
          "name": "proposalId",
          "type": "uint256"
        }
      ],
      "name": "vote",
      "outputs": [],
      "stateMutability": "nonpayable",
      "type": "function"
    },
    {
      "inputs": [],
      "name": "voteTime",
      "outputs": [
        {
          "internalType": "uint256",
          "name": "",
          "type": "uint256"
        }
      ],
      "stateMutability": "view",
      "type": "function"
    },
    {
      "inputs": [
        {
          "internalType": "address",
          "name": "",
          "type": "address"
        },
        {
          "internalType": "uint256",
          "name": "",
          "type": "uint256"
        }
      ],
      "name": "votes",
      "outputs": [
        {
          "internalType": "bool",
          "name": "",
          "type": "bool"
        }
      ],
      "stateMutability": "view",
      "type": "function"
    },
    {
      "inputs": [
        {
          "internalType": "uint256",
          "name": "amount",
          "type": "uint256"
        },
        {
          "internalType": "address payable",
          "name": "to",
          "type": "address"
        }
      ],
      "name": "withdrawEther",
      "outputs": [],
      "stateMutability": "nonpayable",
      "type": "function"
    },
    {
      "stateMutability": "payable",
      "type": "receive"
    }
  ],
  "bytecode": "0x608060405260006007553480156200001657600080fd5b50604051620028183803806200281883398181016040528101906200003c91906200013e565b6000811162000082576040517f08c379a00000000000000000000000000000000000000000000000000000000081526004016200007990620001fb565b60405180910390fd5b62015180836200009391906200024c565b42620000a0919062000297565b600681905550816008819055508060098190555033600a60006101000a81548173ffffffffffffffffffffffffffffffffffffffff021916908373ffffffffffffffffffffffffffffffffffffffff160217905550505050620002d2565b600080fd5b6000819050919050565b620001188162000103565b81146200012457600080fd5b50565b60008151905062000138816200010d565b92915050565b6000806000606084860312156200015a5762000159620000fe565b5b60006200016a8682870162000127565b93505060206200017d8682870162000127565b9250506040620001908682870162000127565b9150509250925092565b600082825260208201905092915050565b7f51756f72756d206d757374206265203e20300000000000000000000000000000600082015250565b6000620001e36012836200019a565b9150620001f082620001ab565b602082019050919050565b600060208201905081810360008301526200021681620001d4565b9050919050565b7f4e487b7100000000000000000000000000000000000000000000000000000000600052601160045260246000fd5b6000620002598262000103565b9150620002668362000103565b9250828202620002768162000103565b9150828204841483151762000290576200028f6200021d565b5b5092915050565b6000620002a48262000103565b9150620002b18362000103565b9250828201905080821115620002cc57620002cb6200021d565b5b92915050565b61253680620002e26000396000f3fe6080604052600436106101235760003560e01c8063868643df116100a0578063ce56c45411610064578063ce56c45414610437578063ce7c2ac214610460578063d151b5161461049d578063d7bb99ba146104c8578063f851a440146104d257610142565b8063868643df1461032c5780639f2524ee14610355578063ba0cb22b14610392578063bcf93dd6146103cf578063c7f758a8146103fa57610142565b80632ab09d14116100e75780632ab09d14146102455780633a98ef391461027057806346fcff4c1461029b5780636f7bc9be146102c657806370a8585d1461030357610142565b80630121b93f1461015c578063013cf08b14610185578063039383e6146101c85780630d61b519146101f15780631703a0181461021a57610142565b3661014257346005600082825461013a91906114a6565b925050819055005b346005600082825461015491906114a6565b925050819055005b34801561016857600080fd5b50610183600480360381019061017e919061151a565b6104fd565b005b34801561019157600080fd5b506101ac60048036038101906101a7919061151a565b610757565b6040516101bf9796959493929190611642565b60405180910390f35b3480156101d457600080fd5b506101ef60048036038101906101ea91906116f6565b61084e565b005b3480156101fd57600080fd5b506102186004803603810190610213919061151a565b6109d7565b005b34801561022657600080fd5b5061022f610bb5565b60405161023c9190611736565b60405180910390f35b34801561025157600080fd5b5061025a610bbb565b6040516102679190611736565b60405180910390f35b34801561027c57600080fd5b50610285610bc1565b6040516102929190611736565b60405180910390f35b3480156102a757600080fd5b506102b0610bc7565b6040516102bd9190611736565b60405180910390f35b3480156102d257600080fd5b506102ed60048036038101906102e89190611751565b610bcd565b6040516102fa919061177e565b60405180910390f35b34801561030f57600080fd5b5061032a600480360381019061032591906118fa565b610bed565b005b34801561033857600080fd5b50610353600480360381019061034e919061151a565b610e12565b005b34801561036157600080fd5b5061037c6004803603810190610377919061197d565b610f92565b604051610389919061177e565b60405180910390f35b34801561039e57600080fd5b506103b960048036038101906103b49190611751565b610fc1565b6040516103c69190611736565b60405180910390f35b3480156103db57600080fd5b506103e461100a565b6040516103f19190611736565b60405180910390f35b34801561040657600080fd5b50610421600480360381019061041c919061151a565b611010565b60405161042e9190611ad0565b60405180910390f35b34801561044357600080fd5b5061045e60048036038101906104599190611af2565b611168565b005b34801561046c57600080fd5b5061048760048036038101906104829190611751565b611206565b6040516104949190611736565b60405180910390f35b3480156104a957600080fd5b506104b261121e565b6040516104bf9190611736565b60405180910390f35b6104d0611224565b005b3480156104de57600080fd5b506104e7611349565b6040516104f49190611b41565b60405180910390f35b600115156000803373ffffffffffffffffffffffffffffffffffffffff1673ffffffffffffffffffffffffffffffffffffffff16815260200190815260200160002060009054906101000a900460ff1615151461058f576040517f08c379a000000000000000000000000000000000000000000000000000000000815260040161058690611ba8565b60405180910390fd5b600060026000838152602001908152602001600020905060001515600360003373ffffffffffffffffffffffffffffffffffffffff1673ffffffffffffffffffffffffffffffffffffffff168152602001908152602001600020600084815260200190815260200160002060009054906101000a900460ff1615151461064a576040517f08c379a000000000000000000000000000000000000000000000000000000000815260040161064190611c3a565b60405180910390fd5b80600501544210610690576040517f08c379a000000000000000000000000000000000000000000000000000000000815260040161068790611ca6565b60405180910390fd5b6001600360003373ffffffffffffffffffffffffffffffffffffffff1673ffffffffffffffffffffffffffffffffffffffff168152602001908152602001600020600084815260200190815260200160002060006101000a81548160ff021916908315150217905550600160003373ffffffffffffffffffffffffffffffffffffffff1673ffffffffffffffffffffffffffffffffffffffff1681526020019081526020016000205481600401600082825461074c91906114a6565b925050819055505050565b600260205280600052604060002060009150905080600001549080600101805461078090611cf5565b80601f01602080910402602001604051908101604052809291908181526020018280546107ac90611cf5565b80156107f95780601f106107ce576101008083540402835291602001916107f9565b820191906000526020600020905b8154815290600101906020018083116107dc57829003601f168201915b5050505050908060020154908060030160009054906101000a900473ffffffffffffffffffffffffffffffffffffffff16908060040154908060050154908060060160009054906101000a900460ff16905087565b81600160003373ffffffffffffffffffffffffffffffffffffffff1673ffffffffffffffffffffffffffffffffffffffff1681526020019081526020016000205410156108d0576040517f08c379a00000000000000000000000000000000000000000000000000000000081526004016108c790611d72565b60405180910390fd5b81600160003373ffffffffffffffffffffffffffffffffffffffff1673ffffffffffffffffffffffffffffffffffffffff168152602001908152602001600020600082825461091f9190611d92565b9250508190555081600160008373ffffffffffffffffffffffffffffffffffffffff1673ffffffffffffffffffffffffffffffffffffffff168152602001908152602001600020600082825461097591906114a6565b9250508190555060016000808373ffffffffffffffffffffffffffffffffffffffff1673ffffffffffffffffffffffffffffffffffffffff16815260200190815260200160002060006101000a81548160ff0219169083151502179055505050565b600a60009054906101000a900473ffffffffffffffffffffffffffffffffffffffff1673ffffffffffffffffffffffffffffffffffffffff163373ffffffffffffffffffffffffffffffffffffffff1614610a67576040517f08c379a0000000000000000000000000000000000000000000000000000000008152600401610a5e90611e12565b60405180910390fd5b60006002600083815260200190815260200160002090508060050154421015610ac5576040517f08c379a0000000000000000000000000000000000000000000000000000000008152600401610abc90611ea4565b60405180910390fd5b600015158160060160009054906101000a900460ff16151514610b1d576040517f08c379a0000000000000000000000000000000000000000000000000000000008152600401610b1490611f36565b60405180910390fd5b60095460646004548360040154610b349190611f85565b610b3e9190611fb6565b1015610b7f576040517f08c379a0000000000000000000000000000000000000000000000000000000008152600401610b769061206a565b60405180910390fd5b610bb181600201548260030160009054906101000a900473ffffffffffffffffffffffffffffffffffffffff1661136f565b5050565b60095481565b60075481565b60045481565b60055481565b60006020528060005260406000206000915054906101000a900460ff1681565b600115156000803373ffffffffffffffffffffffffffffffffffffffff1673ffffffffffffffffffffffffffffffffffffffff16815260200190815260200160002060009054906101000a900460ff16151514610c7f576040517f08c379a0000000000000000000000000000000000000000000000000000000008152600401610c7690611ba8565b60405180910390fd5b826005541015610cc4576040517f08c379a0000000000000000000000000000000000000000000000000000000008152600401610cbb906120d6565b60405180910390fd5b6040518060e0016040528060075481526020018581526020018481526020018373ffffffffffffffffffffffffffffffffffffffff168152602001600081526020018242610d1291906114a6565b815260200160001515815250600260006007548152602001908152602001600020600082015181600001556020820151816001019081610d5291906122a2565b506040820151816002015560608201518160030160006101000a81548173ffffffffffffffffffffffffffffffffffffffff021916908373ffffffffffffffffffffffffffffffffffffffff1602179055506080820151816004015560a0820151816005015560c08201518160060160006101000a81548160ff0219169083151502179055509050508260056000828254610ded9190611d92565b9250508190555060076000815480929190610e0790612374565b919050555050505050565b80600160003373ffffffffffffffffffffffffffffffffffffffff1673ffffffffffffffffffffffffffffffffffffffff168152602001908152602001600020541015610e94576040517f08c379a0000000000000000000000000000000000000000000000000000000008152600401610e8b90612408565b60405180910390fd5b806005541015610ed9576040517f08c379a0000000000000000000000000000000000000000000000000000000008152600401610ed090612474565b60405180910390fd5b80600160003373ffffffffffffffffffffffffffffffffffffffff1673ffffffffffffffffffffffffffffffffffffffff1681526020019081526020016000206000828254610f289190611d92565b925050819055508060056000828254610f419190611d92565b925050819055503373ffffffffffffffffffffffffffffffffffffffff166108fc829081150290604051600060405180830381858888f19350505050158015610f8e573d6000803e3d6000fd5b5050565b60036020528160005260406000206020528060005260406000206000915091509054906101000a900460ff1681565b6000600160008373ffffffffffffffffffffffffffffffffffffffff1673ffffffffffffffffffffffffffffffffffffffff168152602001908152602001600020549050919050565b60085481565b611018611418565b600260008381526020019081526020016000206040518060e00160405290816000820154815260200160018201805461105090611cf5565b80601f016020809104026020016040519081016040528092919081815260200182805461107c90611cf5565b80156110c95780601f1061109e576101008083540402835291602001916110c9565b820191906000526020600020905b8154815290600101906020018083116110ac57829003601f168201915b50505050508152602001600282015481526020016003820160009054906101000a900473ffffffffffffffffffffffffffffffffffffffff1673ffffffffffffffffffffffffffffffffffffffff1673ffffffffffffffffffffffffffffffffffffffff16815260200160048201548152602001600582015481526020016006820160009054906101000a900460ff1615151515815250509050919050565b600a60009054906101000a900473ffffffffffffffffffffffffffffffffffffffff1673ffffffffffffffffffffffffffffffffffffffff163373ffffffffffffffffffffffffffffffffffffffff16146111f8576040517f08c379a00000000000000000000000000000000000000000000000000000000081526004016111ef90611e12565b60405180910390fd5b611202828261136f565b5050565b60016020528060005260406000206000915090505481565b60065481565b6006544210611268576040517f08c379a000000000000000000000000000000000000000000000000000000000815260040161125f906124e0565b60405180910390fd5b60016000803373ffffffffffffffffffffffffffffffffffffffff1673ffffffffffffffffffffffffffffffffffffffff16815260200190815260200160002060006101000a81548160ff02191690831515021790555034600160003373ffffffffffffffffffffffffffffffffffffffff1673ffffffffffffffffffffffffffffffffffffffff168152602001908152602001600020600082825461130e91906114a6565b92505081905550346004600082825461132791906114a6565b92505081905550346005600082825461134091906114a6565b92505081905550565b600a60009054906101000a900473ffffffffffffffffffffffffffffffffffffffff1681565b6005548211156113b4576040517f08c379a00000000000000000000000000000000000000000000000000000000081526004016113ab90612474565b60405180910390fd5b81600560008282546113c69190611d92565b925050819055508073ffffffffffffffffffffffffffffffffffffffff166108fc839081150290604051600060405180830381858888f19350505050158015611413573d6000803e3d6000fd5b505050565b6040518060e00160405280600081526020016060815260200160008152602001600073ffffffffffffffffffffffffffffffffffffffff16815260200160008152602001600081526020016000151581525090565b6000819050919050565b7f4e487b7100000000000000000000000000000000000000000000000000000000600052601160045260246000fd5b60006114b18261146d565b91506114bc8361146d565b92508282019050808211156114d4576114d3611477565b5b92915050565b6000604051905090565b600080fd5b600080fd5b6114f78161146d565b811461150257600080fd5b50565b600081359050611514816114ee565b92915050565b6000602082840312156115305761152f6114e4565b5b600061153e84828501611505565b91505092915050565b6115508161146d565b82525050565b600081519050919050565b600082825260208201905092915050565b60005b83811015611590578082015181840152602081019050611575565b60008484015250505050565b6000601f19601f8301169050919050565b60006115b882611556565b6115c28185611561565b93506115d2818560208601611572565b6115db8161159c565b840191505092915050565b600073ffffffffffffffffffffffffffffffffffffffff82169050919050565b6000611611826115e6565b9050919050565b61162181611606565b82525050565b60008115159050919050565b61163c81611627565b82525050565b600060e082019050611657600083018a611547565b818103602083015261166981896115ad565b90506116786040830188611547565b6116856060830187611618565b6116926080830186611547565b61169f60a0830185611547565b6116ac60c0830184611633565b98975050505050505050565b60006116c3826115e6565b9050919050565b6116d3816116b8565b81146116de57600080fd5b50565b6000813590506116f0816116ca565b92915050565b6000806040838503121561170d5761170c6114e4565b5b600061171b85828601611505565b925050602061172c858286016116e1565b9150509250929050565b600060208201905061174b6000830184611547565b92915050565b600060208284031215611767576117666114e4565b5b6000611775848285016116e1565b91505092915050565b60006020820190506117936000830184611633565b92915050565b600080fd5b600080fd5b7f4e487b7100000000000000000000000000000000000000000000000000000000600052604160045260246000fd5b6117db8261159c565b810181811067ffffffffffffffff821117156117fa576117f96117a3565b5b80604052505050565b600061180d6114da565b905061181982826117d2565b919050565b600067ffffffffffffffff821115611839576118386117a3565b5b6118428261159c565b9050602081019050919050565b82818337600083830152505050565b600061187161186c8461181e565b611803565b90508281526020810184848401111561188d5761188c61179e565b5b61189884828561184f565b509392505050565b600082601f8301126118b5576118b4611799565b5b81356118c584826020860161185e565b91505092915050565b6118d781611606565b81146118e257600080fd5b50565b6000813590506118f4816118ce565b92915050565b60008060008060808587031215611914576119136114e4565b5b600085013567ffffffffffffffff811115611932576119316114e9565b5b61193e878288016118a0565b945050602061194f87828801611505565b9350506040611960878288016118e5565b925050606061197187828801611505565b91505092959194509250565b60008060408385031215611994576119936114e4565b5b60006119a2858286016116e1565b92505060206119b385828601611505565b9150509250929050565b6119c68161146d565b82525050565b600082825260208201905092915050565b60006119e882611556565b6119f281856119cc565b9350611a02818560208601611572565b611a0b8161159c565b840191505092915050565b611a1f81611606565b82525050565b611a2e81611627565b82525050565b600060e083016000830151611a4c60008601826119bd565b5060208301518482036020860152611a6482826119dd565b9150506040830151611a7960408601826119bd565b506060830151611a8c6060860182611a16565b506080830151611a9f60808601826119bd565b5060a0830151611ab260a08601826119bd565b5060c0830151611ac560c0860182611a25565b508091505092915050565b60006020820190508181036000830152611aea8184611a34565b905092915050565b60008060408385031215611b0957611b086114e4565b5b6000611b1785828601611505565b9250506020611b28858286016118e5565b9150509250929050565b611b3b816116b8565b82525050565b6000602082019050611b566000830184611b32565b92915050565b7f4f6e6c7920696e766573746f7273000000000000000000000000000000000000600082015250565b6000611b92600e83611561565b9150611b9d82611b5c565b602082019050919050565b60006020820190508181036000830152611bc181611b85565b9050919050565b7f496e766573746f722063616e206f6e6c7920766f7465206f6e636520666f722060008201527f612070726f706f73616c2e000000000000000000000000000000000000000000602082015250565b6000611c24602b83611561565b9150611c2f82611bc8565b604082019050919050565b60006020820190508181036000830152611c5381611c17565b9050919050565b7f43616e206f6e6c7920766f746520756e74696c2070726f706f73616c20656e64600082015250565b6000611c90602083611561565b9150611c9b82611c5a565b602082019050919050565b60006020820190508181036000830152611cbf81611c83565b9050919050565b7f4e487b7100000000000000000000000000000000000000000000000000000000600052602260045260246000fd5b60006002820490506001821680611d0d57607f821691505b602082108103611d2057611d1f611cc6565b5b50919050565b7f4e6f7420656e6f7567682073686172657320746f207472616e73666572000000600082015250565b6000611d5c601d83611561565b9150611d6782611d26565b602082019050919050565b60006020820190508181036000830152611d8b81611d4f565b9050919050565b6000611d9d8261146d565b9150611da88361146d565b9250828203905081811115611dc057611dbf611477565b5b92915050565b7f4f6e6c792041646d696e00000000000000000000000000000000000000000000600082015250565b6000611dfc600a83611561565b9150611e0782611dc6565b602082019050919050565b60006020820190508181036000830152611e2b81611def565b9050919050565b7f43616e6e6f74206578656375746520612070726f706f73616c206265666f726560008201527f20656e6400000000000000000000000000000000000000000000000000000000602082015250565b6000611e8e602483611561565b9150611e9982611e32565b604082019050919050565b60006020820190508181036000830152611ebd81611e81565b9050919050565b7f43616e6e6f74206578656375746520612070726f706f73616c20616c7265616460008201527f7920657865637574656400000000000000000000000000000000000000000000602082015250565b6000611f20602a83611561565b9150611f2b82611ec4565b604082019050919050565b60006020820190508181036000830152611f4f81611f13565b9050919050565b7f4e487b7100000000000000000000000000000000000000000000000000000000600052601260045260246000fd5b6000611f908261146d565b9150611f9b8361146d565b925082611fab57611faa611f56565b5b828204905092915050565b6000611fc18261146d565b9150611fcc8361146d565b9250828202611fda8161146d565b91508282048414831517611ff157611ff0611477565b5b5092915050565b7f43616e6e6f74206578656375746520612070726f706f73616c2077697468207660008201527f6f7465732062656c6f772071756f72756d000000000000000000000000000000602082015250565b6000612054603183611561565b915061205f82611ff8565b604082019050919050565b6000602082019050818103600083015261208381612047565b9050919050565b7f416d6f756e7420746f6f20626967000000000000000000000000000000000000600082015250565b60006120c0600e83611561565b91506120cb8261208a565b602082019050919050565b600060208201905081810360008301526120ef816120b3565b9050919050565b60008190508160005260206000209050919050565b60006020601f8301049050919050565b600082821b905092915050565b6000600883026121587fffffffffffffffffffffffffffffffffffffffffffffffffffffffffffffffff8261211b565b612162868361211b565b95508019841693508086168417925050509392505050565b6000819050919050565b600061219f61219a6121958461146d565b61217a565b61146d565b9050919050565b6000819050919050565b6121b983612184565b6121cd6121c5826121a6565b848454612128565b825550505050565b600090565b6121e26121d5565b6121ed8184846121b0565b505050565b5b81811015612211576122066000826121da565b6001810190506121f3565b5050565b601f82111561225657612227816120f6565b6122308461210b565b8101602085101561223f578190505b61225361224b8561210b565b8301826121f2565b50505b505050565b600082821c905092915050565b60006122796000198460080261225b565b1980831691505092915050565b60006122928383612268565b9150826002028217905092915050565b6122ab82611556565b67ffffffffffffffff8111156122c4576122c36117a3565b5b6122ce8254611cf5565b6122d9828285612215565b600060209050601f83116001811461230c57600084156122fa578287015190505b6123048582612286565b86555061236c565b601f19841661231a866120f6565b60005b828110156123425784890151825560018201915060208501945060208101905061231d565b8683101561235f578489015161235b601f891682612268565b8355505b6001600288020188555050505b505050505050565b600061237f8261146d565b91507fffffffffffffffffffffffffffffffffffffffffffffffffffffffffffffffff82036123b1576123b0611477565b5b600182019050919050565b7f4e6f7420656e6f7567682073686172657320746f2072656465656d0000000000600082015250565b60006123f2601b83611561565b91506123fd826123bc565b602082019050919050565b60006020820190508181036000830152612421816123e5565b9050919050565b7f4e6f7420656e6f75676820617661696c61626c652066756e6473000000000000600082015250565b600061245e601a83611561565b915061246982612428565b602082019050919050565b6000602082019050818103600083015261248d81612451565b9050919050565b7f5468652074696d6520746f20636f6e747269627574696f6e20656e6473000000600082015250565b60006124ca601d83611561565b91506124d582612494565b602082019050919050565b600060208201905081810360008301526124f9816124bd565b905091905056fea2646970667358221220b8d4067f2481d8f795b51c361308b9752fa9733a3ad921d3949ba73e840cd0ec64736f6c63430008110033",
  "linkReferences": {},
  "deployedLinkReferences": {}
}