{
  "_format": "hh-sol-artifact-1",
  "contractName": "DAO",
  "sourceName": "contracts/DAO.sol",
  "abi": [
    {
      "inputs": [
        {
          "internalType": "uint256",
          "name": "contributionTime",
          "type": "uint256"
        },
        {
          "internalType": "uint256",
          "name": "_voteTime",
          "type": "uint256"
        },
        {
          "internalType": "uint256",
          "name": "_quorum",
          "type": "uint256"
        }
      ],
      "stateMutability": "nonpayable",
      "type": "constructor"
    },
    {
      "stateMutability": "payable",
      "type": "fallback"
    },
    {
      "inputs": [],
      "name": "admin",
      "outputs": [
        {
          "internalType": "address",
          "name": "",
          "type": "address"
        }
      ],
      "stateMutability": "view",
      "type": "function"
    },
    {
      "inputs": [],
      "name": "availableFunds",
      "outputs": [
        {
          "internalType": "uint256",
          "name": "",
          "type": "uint256"
        }
      ],
      "stateMutability": "view",
      "type": "function"
    },
    {
      "inputs": [],
      "name": "constributionEnd",
      "outputs": [
        {
          "internalType": "uint256",
          "name": "",
          "type": "uint256"
        }
      ],
      "stateMutability": "view",
      "type": "function"
    },
    {
      "inputs": [],
      "name": "contribute",
      "outputs": [],
      "stateMutability": "payable",
      "type": "function"
    },
    {
      "inputs": [
        {
          "internalType": "string",
          "name": "name",
          "type": "string"
        },
        {
          "internalType": "uint256",
          "name": "amount",
          "type": "uint256"
        },
        {
          "internalType": "address payable",
          "name": "recipient",
          "type": "address"
        }
      ],
      "name": "createProposal",
      "outputs": [],
      "stateMutability": "nonpayable",
      "type": "function"
    },
    {
      "inputs": [
        {
          "internalType": "uint256",
          "name": "proposalId",
          "type": "uint256"
        }
      ],
      "name": "executeProposal",
      "outputs": [],
      "stateMutability": "nonpayable",
      "type": "function"
    },
    {
      "inputs": [
        {
          "internalType": "address",
          "name": "",
          "type": "address"
        }
      ],
      "name": "investors",
      "outputs": [
        {
          "internalType": "bool",
          "name": "",
          "type": "bool"
        }
      ],
      "stateMutability": "view",
      "type": "function"
    },
    {
      "inputs": [],
      "name": "nextProposalId",
      "outputs": [
        {
          "internalType": "uint256",
          "name": "",
          "type": "uint256"
        }
      ],
      "stateMutability": "view",
      "type": "function"
    },
    {
      "inputs": [
        {
          "internalType": "uint256",
          "name": "",
          "type": "uint256"
        }
      ],
      "name": "proposals",
      "outputs": [
        {
          "internalType": "uint256",
          "name": "id",
          "type": "uint256"
        },
        {
          "internalType": "string",
          "name": "name",
          "type": "string"
        },
        {
          "internalType": "uint256",
          "name": "amount",
          "type": "uint256"
        },
        {
          "internalType": "address payable",
          "name": "recipient",
          "type": "address"
        },
        {
          "internalType": "uint256",
          "name": "votes",
          "type": "uint256"
        },
        {
          "internalType": "uint256",
          "name": "end",
          "type": "uint256"
        },
        {
          "internalType": "bool",
          "name": "executed",
          "type": "bool"
        }
      ],
      "stateMutability": "view",
      "type": "function"
    },
    {
      "inputs": [],
      "name": "quorum",
      "outputs": [
        {
          "internalType": "uint256",
          "name": "",
          "type": "uint256"
        }
      ],
      "stateMutability": "view",
      "type": "function"
    },
    {
      "inputs": [
        {
          "internalType": "uint256",
          "name": "amount",
          "type": "uint256"
        }
      ],
      "name": "redeemShare",
      "outputs": [],
      "stateMutability": "nonpayable",
      "type": "function"
    },
    {
      "inputs": [
        {
          "internalType": "address",
          "name": "",
          "type": "address"
        }
      ],
      "name": "shares",
      "outputs": [
        {
          "internalType": "uint256",
          "name": "",
          "type": "uint256"
        }
      ],
      "stateMutability": "view",
      "type": "function"
    },
    {
      "inputs": [],
      "name": "totalShares",
      "outputs": [
        {
          "internalType": "uint256",
          "name": "",
          "type": "uint256"
        }
      ],
      "stateMutability": "view",
      "type": "function"
    },
    {
      "inputs": [
        {
          "internalType": "uint256",
          "name": "amount",
          "type": "uint256"
        },
        {
          "internalType": "address",
          "name": "to",
          "type": "address"
        }
      ],
      "name": "transferShare",
      "outputs": [],
      "stateMutability": "nonpayable",
      "type": "function"
    },
    {
      "inputs": [
        {
          "internalType": "uint256",
          "name": "proposalId",
          "type": "uint256"
        }
      ],
      "name": "vote",
      "outputs": [],
      "stateMutability": "nonpayable",
      "type": "function"
    },
    {
      "inputs": [],
      "name": "voteTime",
      "outputs": [
        {
          "internalType": "uint256",
          "name": "",
          "type": "uint256"
        }
      ],
      "stateMutability": "view",
      "type": "function"
    },
    {
      "inputs": [
        {
          "internalType": "address",
          "name": "",
          "type": "address"
        },
        {
          "internalType": "uint256",
          "name": "",
          "type": "uint256"
        }
      ],
      "name": "votes",
      "outputs": [
        {
          "internalType": "bool",
          "name": "",
          "type": "bool"
        }
      ],
      "stateMutability": "view",
      "type": "function"
    },
    {
      "inputs": [
        {
          "internalType": "uint256",
          "name": "amount",
          "type": "uint256"
        },
        {
          "internalType": "address payable",
          "name": "to",
          "type": "address"
        }
      ],
      "name": "withdrawEtner",
      "outputs": [],
      "stateMutability": "nonpayable",
      "type": "function"
    }
  ],
  "bytecode": "0x608060405260016007553480156200001657600080fd5b506040516200243a3803806200243a83398181016040528101906200003c91906200013e565b6000811162000082576040517f08c379a00000000000000000000000000000000000000000000000000000000081526004016200007990620001fb565b60405180910390fd5b62015180836200009391906200024c565b42620000a0919062000297565b600681905550816008819055508060098190555033600a60006101000a81548173ffffffffffffffffffffffffffffffffffffffff021916908373ffffffffffffffffffffffffffffffffffffffff160217905550505050620002d2565b600080fd5b6000819050919050565b620001188162000103565b81146200012457600080fd5b50565b60008151905062000138816200010d565b92915050565b6000806000606084860312156200015a5762000159620000fe565b5b60006200016a8682870162000127565b93505060206200017d8682870162000127565b9250506040620001908682870162000127565b9150509250925092565b600082825260208201905092915050565b7f51756f72756d206d757374206265203e20300000000000000000000000000000600082015250565b6000620001e36012836200019a565b9150620001f082620001ab565b602082019050919050565b600060208201905081810360008301526200021681620001d4565b9050919050565b7f4e487b7100000000000000000000000000000000000000000000000000000000600052601160045260246000fd5b6000620002598262000103565b9150620002668362000103565b9250828202620002768162000103565b9150828204841483151762000290576200028f6200021d565b5b5092915050565b6000620002a48262000103565b9150620002b18362000103565b9250828201905080821115620002cc57620002cb6200021d565b5b92915050565b61215880620002e26000396000f3fe60806040526004361061010d5760003560e01c80636f7bc9be116100955780639f2524ee116100645780639f2524ee14610375578063bcf93dd6146103b2578063ce7c2ac2146103dd578063d7bb99ba1461041a578063f851a440146104245761010e565b80636f7bc9be146102bb57806372ac9ef4146102f8578063868643df1461032157806398eca5201461034a5761010e565b80631703a018116100dc5780631703a018146101e65780632ab09d14146102115780633a98ef391461023c57806346fcff4c146102675780636ac1e01f146102925761010e565b80630121b93f14610128578063013cf08b14610151578063039383e6146101945780630d61b519146101bd5761010e565b5b34600560008282546101209190611211565b925050819055005b34801561013457600080fd5b5061014f600480360381019061014a9190611285565b61044f565b005b34801561015d57600080fd5b5061017860048036038101906101739190611285565b6106a9565b60405161018b97969594939291906113ad565b60405180910390f35b3480156101a057600080fd5b506101bb60048036038101906101b69190611461565b6107a0565b005b3480156101c957600080fd5b506101e460048036038101906101df9190611285565b610929565b005b3480156101f257600080fd5b506101fb610b07565b60405161020891906114a1565b60405180910390f35b34801561021d57600080fd5b50610226610b0d565b60405161023391906114a1565b60405180910390f35b34801561024857600080fd5b50610251610b13565b60405161025e91906114a1565b60405180910390f35b34801561027357600080fd5b5061027c610b19565b60405161028991906114a1565b60405180910390f35b34801561029e57600080fd5b506102b960048036038101906102b4919061161d565b610b1f565b005b3480156102c757600080fd5b506102e260048036038101906102dd919061168c565b610d53565b6040516102ef91906116b9565b60405180910390f35b34801561030457600080fd5b5061031f600480360381019061031a91906116d4565b610d73565b005b34801561032d57600080fd5b5061034860048036038101906103439190611285565b610e11565b005b34801561035657600080fd5b5061035f610f91565b60405161036c91906114a1565b60405180910390f35b34801561038157600080fd5b5061039c60048036038101906103979190611714565b610f97565b6040516103a991906116b9565b60405180910390f35b3480156103be57600080fd5b506103c7610fc6565b6040516103d491906114a1565b60405180910390f35b3480156103e957600080fd5b5061040460048036038101906103ff919061168c565b610fcc565b60405161041191906114a1565b60405180910390f35b610422610fe4565b005b34801561043057600080fd5b50610439611109565b6040516104469190611763565b60405180910390f35b600115156000803373ffffffffffffffffffffffffffffffffffffffff1673ffffffffffffffffffffffffffffffffffffffff16815260200190815260200160002060009054906101000a900460ff161515146104e1576040517f08c379a00000000000000000000000000000000000000000000000000000000081526004016104d8906117ca565b60405180910390fd5b600060026000838152602001908152602001600020905060001515600360003373ffffffffffffffffffffffffffffffffffffffff1673ffffffffffffffffffffffffffffffffffffffff168152602001908152602001600020600084815260200190815260200160002060009054906101000a900460ff1615151461059c576040517f08c379a00000000000000000000000000000000000000000000000000000000081526004016105939061185c565b60405180910390fd5b806005015442106105e2576040517f08c379a00000000000000000000000000000000000000000000000000000000081526004016105d9906118c8565b60405180910390fd5b6001600360003373ffffffffffffffffffffffffffffffffffffffff1673ffffffffffffffffffffffffffffffffffffffff168152602001908152602001600020600084815260200190815260200160002060006101000a81548160ff021916908315150217905550600160003373ffffffffffffffffffffffffffffffffffffffff1673ffffffffffffffffffffffffffffffffffffffff1681526020019081526020016000205481600401600082825461069e9190611211565b925050819055505050565b60026020528060005260406000206000915090508060000154908060010180546106d290611917565b80601f01602080910402602001604051908101604052809291908181526020018280546106fe90611917565b801561074b5780601f106107205761010080835404028352916020019161074b565b820191906000526020600020905b81548152906001019060200180831161072e57829003601f168201915b5050505050908060020154908060030160009054906101000a900473ffffffffffffffffffffffffffffffffffffffff16908060040154908060050154908060060160009054906101000a900460ff16905087565b81600160003373ffffffffffffffffffffffffffffffffffffffff1673ffffffffffffffffffffffffffffffffffffffff168152602001908152602001600020541015610822576040517f08c379a000000000000000000000000000000000000000000000000000000000815260040161081990611994565b60405180910390fd5b81600160003373ffffffffffffffffffffffffffffffffffffffff1673ffffffffffffffffffffffffffffffffffffffff168152602001908152602001600020600082825461087191906119b4565b9250508190555081600160008373ffffffffffffffffffffffffffffffffffffffff1673ffffffffffffffffffffffffffffffffffffffff16815260200190815260200160002060008282546108c79190611211565b9250508190555060016000808373ffffffffffffffffffffffffffffffffffffffff1673ffffffffffffffffffffffffffffffffffffffff16815260200190815260200160002060006101000a81548160ff0219169083151502179055505050565b600a60009054906101000a900473ffffffffffffffffffffffffffffffffffffffff1673ffffffffffffffffffffffffffffffffffffffff163373ffffffffffffffffffffffffffffffffffffffff16146109b9576040517f08c379a00000000000000000000000000000000000000000000000000000000081526004016109b090611a34565b60405180910390fd5b60006002600083815260200190815260200160002090508060050154421015610a17576040517f08c379a0000000000000000000000000000000000000000000000000000000008152600401610a0e90611ac6565b60405180910390fd5b600015158160060160009054906101000a900460ff16151514610a6f576040517f08c379a0000000000000000000000000000000000000000000000000000000008152600401610a6690611b58565b60405180910390fd5b60095460646004548360040154610a869190611ba7565b610a909190611bd8565b1015610ad1576040517f08c379a0000000000000000000000000000000000000000000000000000000008152600401610ac890611c8c565b60405180910390fd5b610b0381600201548260030160009054906101000a900473ffffffffffffffffffffffffffffffffffffffff1661112f565b5050565b60095481565b60075481565b60045481565b60055481565b600115156000803373ffffffffffffffffffffffffffffffffffffffff1673ffffffffffffffffffffffffffffffffffffffff16815260200190815260200160002060009054906101000a900460ff16151514610bb1576040517f08c379a0000000000000000000000000000000000000000000000000000000008152600401610ba8906117ca565b60405180910390fd5b816005541015610bf6576040517f08c379a0000000000000000000000000000000000000000000000000000000008152600401610bed90611cf8565b60405180910390fd5b6040518060e0016040528060075481526020018481526020018381526020018273ffffffffffffffffffffffffffffffffffffffff1681526020016000815260200160085462015180610c499190611bd8565b42610c549190611211565b815260200160001515815250600260006007548152602001908152602001600020600082015181600001556020820151816001019081610c949190611ec4565b506040820151816002015560608201518160030160006101000a81548173ffffffffffffffffffffffffffffffffffffffff021916908373ffffffffffffffffffffffffffffffffffffffff1602179055506080820151816004015560a0820151816005015560c08201518160060160006101000a81548160ff0219169083151502179055509050508160056000828254610d2f91906119b4565b9250508190555060076000815480929190610d4990611f96565b9190505550505050565b60006020528060005260406000206000915054906101000a900460ff1681565b600a60009054906101000a900473ffffffffffffffffffffffffffffffffffffffff1673ffffffffffffffffffffffffffffffffffffffff163373ffffffffffffffffffffffffffffffffffffffff1614610e03576040517f08c379a0000000000000000000000000000000000000000000000000000000008152600401610dfa90611a34565b60405180910390fd5b610e0d828261112f565b5050565b80600160003373ffffffffffffffffffffffffffffffffffffffff1673ffffffffffffffffffffffffffffffffffffffff168152602001908152602001600020541015610e93576040517f08c379a0000000000000000000000000000000000000000000000000000000008152600401610e8a9061202a565b60405180910390fd5b806005541015610ed8576040517f08c379a0000000000000000000000000000000000000000000000000000000008152600401610ecf90612096565b60405180910390fd5b80600160003373ffffffffffffffffffffffffffffffffffffffff1673ffffffffffffffffffffffffffffffffffffffff1681526020019081526020016000206000828254610f2791906119b4565b925050819055508060056000828254610f4091906119b4565b925050819055503373ffffffffffffffffffffffffffffffffffffffff166108fc829081150290604051600060405180830381858888f19350505050158015610f8d573d6000803e3d6000fd5b5050565b60065481565b60036020528160005260406000206020528060005260406000206000915091509054906101000a900460ff1681565b60085481565b60016020528060005260406000206000915090505481565b6006544210611028576040517f08c379a000000000000000000000000000000000000000000000000000000000815260040161101f90612102565b60405180910390fd5b60016000803373ffffffffffffffffffffffffffffffffffffffff1673ffffffffffffffffffffffffffffffffffffffff16815260200190815260200160002060006101000a81548160ff02191690831515021790555034600160003373ffffffffffffffffffffffffffffffffffffffff1673ffffffffffffffffffffffffffffffffffffffff16815260200190815260200160002060008282546110ce9190611211565b9250508190555034600460008282546110e79190611211565b9250508190555034600560008282546111009190611211565b92505081905550565b600a60009054906101000a900473ffffffffffffffffffffffffffffffffffffffff1681565b600554821115611174576040517f08c379a000000000000000000000000000000000000000000000000000000000815260040161116b90612096565b60405180910390fd5b816005600082825461118691906119b4565b925050819055508073ffffffffffffffffffffffffffffffffffffffff166108fc839081150290604051600060405180830381858888f193505050501580156111d3573d6000803e3d6000fd5b505050565b6000819050919050565b7f4e487b7100000000000000000000000000000000000000000000000000000000600052601160045260246000fd5b600061121c826111d8565b9150611227836111d8565b925082820190508082111561123f5761123e6111e2565b5b92915050565b6000604051905090565b600080fd5b600080fd5b611262816111d8565b811461126d57600080fd5b50565b60008135905061127f81611259565b92915050565b60006020828403121561129b5761129a61124f565b5b60006112a984828501611270565b91505092915050565b6112bb816111d8565b82525050565b600081519050919050565b600082825260208201905092915050565b60005b838110156112fb5780820151818401526020810190506112e0565b60008484015250505050565b6000601f19601f8301169050919050565b6000611323826112c1565b61132d81856112cc565b935061133d8185602086016112dd565b61134681611307565b840191505092915050565b600073ffffffffffffffffffffffffffffffffffffffff82169050919050565b600061137c82611351565b9050919050565b61138c81611371565b82525050565b60008115159050919050565b6113a781611392565b82525050565b600060e0820190506113c2600083018a6112b2565b81810360208301526113d48189611318565b90506113e360408301886112b2565b6113f06060830187611383565b6113fd60808301866112b2565b61140a60a08301856112b2565b61141760c083018461139e565b98975050505050505050565b600061142e82611351565b9050919050565b61143e81611423565b811461144957600080fd5b50565b60008135905061145b81611435565b92915050565b600080604083850312156114785761147761124f565b5b600061148685828601611270565b92505060206114978582860161144c565b9150509250929050565b60006020820190506114b660008301846112b2565b92915050565b600080fd5b600080fd5b7f4e487b7100000000000000000000000000000000000000000000000000000000600052604160045260246000fd5b6114fe82611307565b810181811067ffffffffffffffff8211171561151d5761151c6114c6565b5b80604052505050565b6000611530611245565b905061153c82826114f5565b919050565b600067ffffffffffffffff82111561155c5761155b6114c6565b5b61156582611307565b9050602081019050919050565b82818337600083830152505050565b600061159461158f84611541565b611526565b9050828152602081018484840111156115b0576115af6114c1565b5b6115bb848285611572565b509392505050565b600082601f8301126115d8576115d76114bc565b5b81356115e8848260208601611581565b91505092915050565b6115fa81611371565b811461160557600080fd5b50565b600081359050611617816115f1565b92915050565b6000806000606084860312156116365761163561124f565b5b600084013567ffffffffffffffff81111561165457611653611254565b5b611660868287016115c3565b935050602061167186828701611270565b925050604061168286828701611608565b9150509250925092565b6000602082840312156116a2576116a161124f565b5b60006116b08482850161144c565b91505092915050565b60006020820190506116ce600083018461139e565b92915050565b600080604083850312156116eb576116ea61124f565b5b60006116f985828601611270565b925050602061170a85828601611608565b9150509250929050565b6000806040838503121561172b5761172a61124f565b5b60006117398582860161144c565b925050602061174a85828601611270565b9150509250929050565b61175d81611423565b82525050565b60006020820190506117786000830184611754565b92915050565b7f4f6e6c7920696e766573746f7273000000000000000000000000000000000000600082015250565b60006117b4600e836112cc565b91506117bf8261177e565b602082019050919050565b600060208201905081810360008301526117e3816117a7565b9050919050565b7f496e766573746f722063616e206f6e6c7920766f7465206f6e636520666f722060008201527f612070726f706f73616c2e000000000000000000000000000000000000000000602082015250565b6000611846602b836112cc565b9150611851826117ea565b604082019050919050565b6000602082019050818103600083015261187581611839565b9050919050565b7f43616e206f6e6c7920766f746520756e74696c2070726f706f73616c20656e64600082015250565b60006118b26020836112cc565b91506118bd8261187c565b602082019050919050565b600060208201905081810360008301526118e1816118a5565b9050919050565b7f4e487b7100000000000000000000000000000000000000000000000000000000600052602260045260246000fd5b6000600282049050600182168061192f57607f821691505b602082108103611942576119416118e8565b5b50919050565b7f4e6f7420656e6f7567682073686172657320746f207472616e73666572000000600082015250565b600061197e601d836112cc565b915061198982611948565b602082019050919050565b600060208201905081810360008301526119ad81611971565b9050919050565b60006119bf826111d8565b91506119ca836111d8565b92508282039050818111156119e2576119e16111e2565b5b92915050565b7f4f6e6c792041646d696e00000000000000000000000000000000000000000000600082015250565b6000611a1e600a836112cc565b9150611a29826119e8565b602082019050919050565b60006020820190508181036000830152611a4d81611a11565b9050919050565b7f43616e6e6f74206578656375746520612070726f706f73616c206265666f726560008201527f20656e6400000000000000000000000000000000000000000000000000000000602082015250565b6000611ab06024836112cc565b9150611abb82611a54565b604082019050919050565b60006020820190508181036000830152611adf81611aa3565b9050919050565b7f43616e6e6f74206578656375746520612070726f706f73616c20616c7265616460008201527f7920657865637574656400000000000000000000000000000000000000000000602082015250565b6000611b42602a836112cc565b9150611b4d82611ae6565b604082019050919050565b60006020820190508181036000830152611b7181611b35565b9050919050565b7f4e487b7100000000000000000000000000000000000000000000000000000000600052601260045260246000fd5b6000611bb2826111d8565b9150611bbd836111d8565b925082611bcd57611bcc611b78565b5b828204905092915050565b6000611be3826111d8565b9150611bee836111d8565b9250828202611bfc816111d8565b91508282048414831517611c1357611c126111e2565b5b5092915050565b7f43616e6e6f74206578656375746520612070726f706f73616c2077697468207660008201527f6f7465732062656c6f772071756f72756d000000000000000000000000000000602082015250565b6000611c766031836112cc565b9150611c8182611c1a565b604082019050919050565b60006020820190508181036000830152611ca581611c69565b9050919050565b7f416d6f756e7420746f6f20626967000000000000000000000000000000000000600082015250565b6000611ce2600e836112cc565b9150611ced82611cac565b602082019050919050565b60006020820190508181036000830152611d1181611cd5565b9050919050565b60008190508160005260206000209050919050565b60006020601f8301049050919050565b600082821b905092915050565b600060088302611d7a7fffffffffffffffffffffffffffffffffffffffffffffffffffffffffffffffff82611d3d565b611d848683611d3d565b95508019841693508086168417925050509392505050565b6000819050919050565b6000611dc1611dbc611db7846111d8565b611d9c565b6111d8565b9050919050565b6000819050919050565b611ddb83611da6565b611def611de782611dc8565b848454611d4a565b825550505050565b600090565b611e04611df7565b611e0f818484611dd2565b505050565b5b81811015611e3357611e28600082611dfc565b600181019050611e15565b5050565b601f821115611e7857611e4981611d18565b611e5284611d2d565b81016020851015611e61578190505b611e75611e6d85611d2d565b830182611e14565b50505b505050565b600082821c905092915050565b6000611e9b60001984600802611e7d565b1980831691505092915050565b6000611eb48383611e8a565b9150826002028217905092915050565b611ecd826112c1565b67ffffffffffffffff811115611ee657611ee56114c6565b5b611ef08254611917565b611efb828285611e37565b600060209050601f831160018114611f2e5760008415611f1c578287015190505b611f268582611ea8565b865550611f8e565b601f198416611f3c86611d18565b60005b82811015611f6457848901518255600182019150602085019450602081019050611f3f565b86831015611f815784890151611f7d601f891682611e8a565b8355505b6001600288020188555050505b505050505050565b6000611fa1826111d8565b91507fffffffffffffffffffffffffffffffffffffffffffffffffffffffffffffffff8203611fd357611fd26111e2565b5b600182019050919050565b7f4e6f7420656e6f7567682073686172657320746f2072656465656d0000000000600082015250565b6000612014601b836112cc565b915061201f82611fde565b602082019050919050565b6000602082019050818103600083015261204381612007565b9050919050565b7f4e6f7420656e6f75676820617661696c61626c652066756e6473000000000000600082015250565b6000612080601a836112cc565b915061208b8261204a565b602082019050919050565b600060208201905081810360008301526120af81612073565b9050919050565b7f5468652074696d6520746f20636f6e747269627574696f6e20656e6473000000600082015250565b60006120ec601d836112cc565b91506120f7826120b6565b602082019050919050565b6000602082019050818103600083015261211b816120df565b905091905056fea2646970667358221220593d430aa58b9d67294cc636e62df1e763eaa26e82b68a59b424b78469887f5f64736f6c63430008110033",
  "linkReferences": {},
  "deployedLinkReferences": {}
}